:020000040000fa
:080000000002040000000000f2
:020000040000fa
:10000800420400004a0400006e040000520400008c
:100018005a04000062040000720400006a04000030
:100028006a0400006a0400006a040000a2030000d9
:10003800d20200006a0400006a040000e80300001d
:10004800000400006a0400006a040000960300002f
:100058008a0300006a040000de0200006a0400004f
:100068006a0400006a0400006a0400006a040000d0
:100078006a0400006a0400006a0400006a040000c0
:100088001a0300006a0400006a0400001804000053
:100098006a0400006a0400006a0400006a040000a0
:1000a8006a0400006a0400006a04000058030000a3
:1000b800260300006a0400006a0400006a040000c5
:1000c8006a0400006a0400006a0400006a04000070
:1000d8006a0400006a0400006a0400006a04000060
:1000e8006a0400006a0400006a0400006a04000050
:1000f8006a0400006a0400006a0400006a04000040
:100108006a0400006a0400006a0400006a0400002f
:100118006a0400006a0400006a0400006a0400001f
:100128006a0400006a0400006a0400006a0400000f
:100138006a0400006a0400006a0400006a040000ff
:100148006a0400006a0400006a0400006a040000ef
:100158006a0400006a0400006a0400006a040000df
:100168006a0400006a0400006a0400006a040000cf
:100178006a0400006a0400006a0400006a040000bf
:100188006a0400006a0400006a0400006a040000af
:100198006a0400006a0400006a0400006a0400009f
:1001a8006a0400006a0400006a0400006a0400008f
:1001b8006a0400006a0400006a0400006a0400007f
:1001c8006a0400006a0400006a0400006a0400006f
:1001d8006a0400006a0400006a0400006a0400005f
:1001e8006a0400006a0400006a0400006a0400004f
:1001f8006a0400006a0400006a0400006a0400003f
:100208006a0400006a0400006a0400006a0400002e
:100218006a0400006a0400006a0400006a0400001e
:100228006a0400006a0400006a0400006a0400000e
:100238006a0400006a0400006a0400006a040000fe
:100248006a0400006a0400006a0400006a040000ee
:100258006a0400006a0400006a0400006a040000de
:100268006a0400006a0400006a0400006a040000ce
:0c0278006a0400006a0400006a04000030
:020000040000fa
:100400006f2221000eff21000e0188000000000075
:10041000000020000000e000020032000001200087
:10042000200288000c00070020dd200001002000d1
:100430000f000700000020000000e0000200320072
:100440000000020000000000ec0d020000000000af
:100450000040da000000fe00200020000000e00064
:100460000200320010002000900188000000060009
:10047000a1028800800078000000eb001a0037001d
:10048000e280400054a0b4009101ba00e280400034
:1004900054a0b4009102ba00e280400054a0b4001d
:1004a0000002eb00472bde00f507b200a601880032
:1004b000602ce10008003a000049eb000201e8006e
:1004c000020039003420ec0002f0a0008301e900b2
:1004d000f9ff3e00040037006128e100010032000e
:1004e0000082eb00040007001101ba000200e000e6
:1004f000e3ff3a000000060004d0a300e20f490029
:100500001c003900810278003549ba000201e80078
:10051000020039003420ec0002f0a0008301e90061
:100520000f0032002549ba000201e800020039003c
:100530003420ec0002f0a0008301e9000800320042
:100540000400e0000600320015c9ba000201e8000c
:10055000020039003420ec0002f0a0008301e90021
:100560008180e80054a0b4000300e000e2ff3a00fc
:10057000000006009102ba00055978008301e900e5
:10058000f7ff3200c82ade00055978008301e90030
:10059000f3ff32000400e000f1ff320011d9ba008d
:1005a000eeff3700801f78000000fa000088a900e5
:1005b0000080fa004f007800004006003600f80086
:1005c000809fbe00829fbe00849fbe00869fbe00ab
:1005d0000c00fa00156ea90011e1a800442080006b
:1005e00004427800f443b2000482fb0084007800e7
:1005f0000e007800f80107001e0078009e009000b1
:100600002e019000be0190004e029000de0290008c
:10061000ad01070001c8a9000080fa004f03be0029
:100620004f02be004f01be004f00be003600f90071
:1006300000400600801f78000000fa000308a900af
:100640000080fa004f007800004006003600f800f5
:10065000809fbe00829fbe00849fbe00869fbe001a
:100660000000fa0014918000e00f520003003a00ed
:10067000402121005c03070002003700a021210077
:1006800059030700149180000400a200149188000f
:100690000488a9000080fa004f03be004f02be008c
:1006a0004f01be004f00be003600f90000400600ba
:1006b000801f7800841f78000000fa00542080001a
:1006c00064026200e00f5200010032000a44a900f7
:1006d0005420800062026200e00f520001003200ec
:1006e0000a24a9005420800061026200e00f520039
:1006f00003003200154ea90013e1a8000a04a90066
:100700000468a9000080fa004f0278004f007800ca
:1007100000400600801f78000000fa000188a90050
:100720000080fa004f00780000400600801f78002b
:100730000000fa000168a9000080fa004f0078006c
:1007400000400600801f7800849fbe00861f78004e
:100750000000fa0014222100144278000442e8004c
:100760000002fd0021f2b7000002fd00142221006a
:1007700014427800e54f52000f003a00a470800048
:100780004f22de00044278000404a20061426200ad
:100790000482fb004f22dd00a6708000f5ff2700d9
:1007a0008502630005027200a47088000042eb001d
:1007b0000400780021f2b7000068a9000080fa0068
:1007c0004f0378004f02be004f0078000040060043
:1007d000801f7800841f78000000fa00156ea800c2
:1007e00011e1a9000002eb003408880000e8a9002c
:1007f0000080fa004f0278004f00780000400600a9
:10080000801f7800841f78000000fa00154ea800b1
:1008100013e1a9000002eb00540888000108a900b8
:100820000080fa004f0278004f0078000040060078
:10083000801f7800841f78000000fa000422210045
:10084000144278000442e8000002fd0020f2b700e4
:100850000002fd000422210014427800e84f5200fb
:1008600003003a000042eb000400780020f2b700d9
:100870000368a9000080fa004f0278004f0078005a
:1008800000400600801f78000000fa00c028a90080
:10089000ffff3700801f78000000fa00c068a90041
:1008a000ffff3700801f78000000fa00c048a90051
:1008b000ffff3700801f78000000fa00c088a90001
:1008c000ffff3700801f78000000fa00c0a8a900d1
:1008d000ffff37000000fa00ffff37000000fa00ba
:0c08e000ffff37000000fa00ffff3700a8
:020000040000fa
:1008ec000200fa0000c2eb00044f78000004a900db
:1008fc00042080000480a1000490a10004a0a000aa
:10090c00042088000000000005208000040e200058
:10091c008482620004082000848f5200faff3a009f
:10092c000164a90064002000842088008401240054
:10093c00942088009e4278000582fb004822dd004e
:10094c00844278001e42780004c26a00044f78008a
:10095c009e42780061c262006142620061426200a4
:10096c000482fb00610262004722dd0086218000c8
:10097c00f5f72f00850263000502720084218800c0
:10098c009e4278000582fb000402d10004427800ec
:10099c006142620061426200614262000482fb00bb
:1009ac004f22dd0086218000f5ff270085026300c1
:1009bc0005027200842188009e4278000582fb00ab
:1009cc004222de0004427800614262006142620011
:1009dc00614262000482fb00610262004722dd007a
:1009ec0096218000f5f72f00850263000502720046
:1009fc00942188009e4278000582fb004322de0091
:100a0c00044278006142620061426200614262000d
:100a1c000482fb004f22dd0096218000f5ff2700a9
:100a2c008502630005027200942188009e427800c2
:100a3c000582fb004422de00044278006142620021
:100a4c0061426200614262000482fb00610262004a
:100a5c004722dd00a6218000f5f72f0085026300f8
:100a6c0005027200a42188009e4278000582fb00da
:100a7c004522de000442780061426200614262005d
:100a8c00614262000482fb004f22dd00a62180003f
:100a9c00f5ff27008502630005027200a42188007f
:100aac009e4278000582fb004622de00044278005c
:100abc006142620061426200614262000482fb009a
:100acc00610262004722dd00b6218000f5f72f009d
:100adc008502630005027200b42188009e427800f2
:100aec000582fb004722de0004427800614262006e
:100afc000482fb004f22dd00b6218000f5ff2700a9
:100b0c008502630005027200b42188000004a8006d
:100b1c003420800004d0a10004e0a00004f0a00068
:100b2c00342088003520800004fe2f0004826200ef
:100b3c000430a000342088001404a8000421800094
:100b4c000400a0000410a0000420a0000430a000a9
:100b5c000421880004228000ff02620004d02f00d0
:100b6c0005027200042288003064a8004064a900c9
:100b7c00c42080000400a1000410a100c42088003f
:100b8c008521800004fe2f0005027200842188005c
:100b9c000a44a9000a04a9000a24a9000448a900cf
:100bac0008c8a9000468a9000c04a8002468a800bf
:100bbc000004a900042080000480a0000490a1007f
:100bcc0004a0a10004208800000000000520800083
:100bdc00040e20008482620004022000848f5200e4
:100bec00faff3a000080fa00000006000000fa004c
:100bfc0001cba900045880000440a1000450a000bf
:100c0c0004588800045880000400a1000410a100be
:100c1c000458880001aba8007400200074588800a8
:100c2c006404200014588800244420006458880070
:100c3c0004002100245888000002eb00345888007e
:100c4c000088a9002088a90001eba8000080fa0008
:100c5c00000006000000fa0011cba90084588000a7
:100c6c000440a1000450a0008458880084588000df
:100c7c000400a1000410a1008458880011aba90045
:100c8c0074002000f4588800240220009458880036
:100c9c0004442000e458880004002100a458880073
:100cac000002eb00b458880001c8a90021c8a800b4
:100cbc0011eba8000080fa00000006001a00fa00f0
:100ccc0070079800010f9800120f9800230f9800de
:100cdc00340f9800450f9800e7034700fe00900082
:100cec000e0990009e0990002e0a9000be0a9000fa
:100cfc004e0b900007007800e50207007e42900042
:100d0c008482fb000e4a90000482fb004822dd0026
:100d1c008500780084807000010278000003eb00ed
:100d2c00040378001e4a90008482fb002e4a900037
:100d3c000482fb004822dd00850378008483730065
:100d4c00070278008002eb00840278003e4a900093
:100d5c008483fb004e4a90000482fb004822dd0095
:100d6c008700780084807000010278008003eb001b
:100d7c00840378005e4a90008480fb000002eb0044
:100d8c00f00f20000080600001f02f0001026200d3
:100d9c008000780084807000010278008600780062
:100dac0005017800870178000e00780084020700a6
:100dbc001e0078009e0090002e019000be01900055
:100dcc00690107000080fa00000006000e00fa001e
:100ddc00881f780000047800610798006e0290006c
:100dec00c422dd00040021000482420014027800b9
:100dfc004222de00040f78006e0290004422dd00d7
:100e0c00e402420004002100048242001402780033
:100e1c0004427800244798006e0290004422dd00c2
:100e2c00e602420004002100048242001402780011
:100e3c0004427800344798006e0290004422dd0092
:100e4c00e6024200040021000482420014027800f1
:100e5c004822de0004427800444798006e0290005d
:100e6c004422dd00e802420004002100048242001a
:100e7c001402780004427800544798006e029000e7
:100e8c004422dd00e80242000400210004824200fa
:100e9c00140278004822de0004427800644798006f
:100eac006e0290004422dd00ea02420004002100a0
:100ebc0004824200140278000442780074479800bf
:100ecc006e0290004422dd00ea0242000400210080
:100edc0004824200140278004822de0004427800aa
:100eec00044f98006e0290004422dd00ec02420098
:100efc0004002100048242001402780004427800ad
:100f0c00144f98006e0290004422dd00ec02420067
:100f1c000400210004824200140278004822de0002
:100f2c0004427800244f98006e009000a100070046
:100f3c000e02780088027800b41a7800a4127800a7
:100f4c00e482420064024200b41a7800a4127800d1
:100f5c00e482420064024200b41a7800a4127800c1
:100f6c00e482420064024200080078004f047800da
:100f7c000080fa00000006000c00fa00000f780058
:100f8c00110798002207980033079800440798002f
:100f9c005507980044222100144278000482fb007b
:100fac009e027800c22add004423dd0004002100eb
:100fbc0004024300050a7800442221001442780000
:100fcc000483fb002e4290008482fb004433dd003e
:100fdc004400210004024300050a78004422210049
:100fec00144278000483fb004e4290000482fb0004
:100ffc00c822dd003e4290000482fb000502720014
:10100c00840278004433dd006400210004024300b4
:10101c00050a780044222100144278000483fb0066
:10102c006e4290000482fb00c822dd005e429000fc
:10103c000482fb0005027200840278004433dd0058
:10104c008400210004024300050a78004422210098
:10105c00144278000483fb000e4a90000482fb00cb
:10106c00c822dd007e4290000482fb000502720063
:10107c00840278004433dd00a40021000402430004
:10108c00050a780044222100144278000483fb00f6
:10109c002e4a90000482fb00c822dd001e4a9000fc
:1010ac000482fb0005027200840278004433dd00e8
:1010bc00c400210004024300050a780044222100e8
:1010cc0014427800e04f520002003a003064a8004d
:1010dc00290037004422210014427800e14f5200cd
:1010ec0002003a003164a80023003700442221009a
:1010fc0014427800e24f520002003a003264a80019
:10110c001d0037004422210014427800e34f5200a6
:10111c0002003a003364a800170037004422210073
:10112c0014427800e44f520002003a003464a800e4
:10113c00110037004422210014427800e54f520080
:10114c0002003a003564a8000b003700442221004d
:10115c0014427800e64f520002003a003664a800b0
:10116c00050037004422210014427800e74f52005a
:10117c0001003a003764a800442221001442780090
:10118c000442e8000002fd0024f2b7000002fd005a
:10119c004422210014427800e74f5200030036002d
:1011ac000042eb000400780024f2b7000080fa0043
:1011bc00000006000200fa00000f78001e02780002
:1011cc00ef0f520009003e001e02780015002000af
:1011dc00042add000482ea008402780004218000e5
:1011ec0004826200042188000c0037004420800037
:1011fc0004427800f443b2000482fb0070025200f7
:10120c0015002000042add000482ea008402780024
:10121c001421800004826200142188000080fa00ee
:10122c00000006000000fa0021cba9000459800040
:10123c000440a1000450a100045988000459800006
:10124c000400a0000410a1000459880021aba800e0
:10125c006400200074598800c400200014598800d0
:10126c00442220006459880004202100245988005d
:10127c000002eb00345988000308a9002308a900d8
:10128c0021eba9000080fa00000006000000fa0023
:10129c0031cba900845980000440a1000450a10066
:1012ac0084598800845980000400a1000410a00017
:1012bc008459880031aba90024002000f45988001f
:1012cc00b40020009459880064222000e45988005e
:1012dc0044212100a45988000002eb00b459880075
:1012ec00a4212100c45988000002eb00d4598800c5
:1012fc000488a9002488a80031eba8000080fa001b
:10130c00000006000000fa0054022000441188007e
:10131c00051180008480240004826200041188007e
:10132c000511800084002800050272000411880059
:10133c0015118000f47521000482620014118800dc
:10134c001511800004402000050272001411880061
:10135c000168a9000188a9002168a9002188a900b9
:10136c000080fa00000006000800fa00000f780068
:10137c001107980022079800330798001e42780046
:10138c000482fb00049088001e4290000482fb0043
:10139c00149088002e4290000482fb002490880058
:1013ac003e4290000482fb00349088004e42900034
:1013bc000482fb00449088005e4290000482fb0093
:1013cc00549088006e4290000482fb006490880068
:1013dc00ee0007000080fa00000006000c00fa0086
:1013ec00500798005e0290001402780004427800c6
:1013fc00744798005e0290000482e80014027800a2
:10140c0004427800044f98005e029000640242008f
:10141c001402780004427800144f980004208000d5
:10142c004522de00674262000482fb00e00f52009e
:10143c001b003200e10f52004c003a00fe429000bb
:10144c0054c6b30084cf520008003a00f4042000c4
:10145c0004908800e40420001490880020002000f0
:10146c00bc0007000000eb00a40007007e429000c7
:10147c00e34f52003a003a0005e1a9000002eb00ec
:10148c00040888000e4a90008482fb00141020008f
:10149c0084aab9001408880005e1a80033003700bd
:1014ac007e4290000482fb00e20f52000c003200de
:1014bc0035072000850f52002b003a00b4042000a1
:1014cc0004908800f4042000149088002000200070
:1014dc00a000070010002000880007001e00370045
:1014ec007e4290008482fb000e4a90000482fb0036
:1014fc004822dd000503780004037300060278001f
:10150c008002eb00840278001e4a90008483fb006a
:10151c000002eb00f60f20000683630007f02f009b
:10152c000702620086037800848373000702780048
:10153c0085007800040178000e007800bb000700dd
:10154c001e0078009e0090002e019000be019000bd
:10155c001501070000000000000000000300370028
:10156c000000000001003700000000000080fa00bd
:10157c00000006000000fa009cfd0700b5fd070006
:10158c0028ff070041ff07005eff0700d4fc07009f
:10159c0005e1a9000421a90004c1a90024088000c8
:1015ac000440a0000450a000240888000002eb00b6
:1015bc00040888004458280014088800044280005d
:1015cc0004c0a00004d0a10004e0a10004428800e3
:1015dc000068a9002068a80005e1a80011e1a90095
:1015ec001021a90010c1a900840880000440a000ab
:1015fc000450a000840888000002eb003408880026
:10160c0004ad2600640888001442800004c0a000c9
:10161c0004d0a10004e0a1001442880000e8a90055
:10162c0020e8a80011e1a90013e1a9001221a900ea
:10163c0012c1a900940880000440a0000450a0002e
:10164c00940888000002eb005408880004ad2600c2
:10165c0074088800244280000400a0000410a1003b
:10166c000420a100244288000108a9002108a80038
:10167c0013e1a9001fe1a9001e21a9001ec1a900a8
:10168c00f40880000440a0000450a000f408880076
:10169c000002eb00a4088800e4aa2000d40888000b
:1016ac006442800004c0a00004d0a10004e0a100aa
:1016bc00644288000368a9002368a8001fe1a90000
:1016cc000080fa00000006000000fa00110ea900cc
:1016dc00112ea900150ea900152ea90011eea900b6
:1016ec00116ea900114ea90015eea900156ea800e7
:1016fc00154ea8000080fa00000006000200fa0057
:10170c00000f78001e0278000442780067426200e5
:10171c000482fb00670262004822dd000620800084
:10172c00f58f2f00850263000502720004208800eb
:10173c0000000000042080004522de0067426200a9
:10174c000482fb009e0f5200faff3a000080fa0060
:10175c00000006000200fa00000f780000000000f4
:10176c00151180000420200004826200e00f52005a
:10177c00fbff3a001e02e9007459880021eba80017
:10178c0023eba8000080fa00000006000000fa001d
:10179c0064002000745988000000000015118000be
:1017ac000420200004826200e00f5200fbff3a008c
:1017bc0021eba80023eba8000080fa000000060033
:1017cc001000fa0080027800410798005207980038
:1017dc0063079800740798000e4a9000044f780035
:1017ec001e4a9000144798002e4a900024479800f7
:1017fc003e4a9000344798004e4a90004447980067
:10180c005e4a9000544798006e4a900064479800d6
:10181c0006000900be5a78007500b1007e00b100c8
:10182c00050078000080fa00000006000c00fa00a9
:10183c0000027800410798005207980025c0b300b9
:10184c00054f78009e4a900015479800ae4a9000cc
:10185c00254798008042eb00354798008042eb000a
:10186c00454798008042eb00554798008042eb00ba
:10187c0065479800060009003e5a78007400b100d4
:10188c007e00b100040078000080fa000000060021
:10189c001400fa0080037800410798005207980062
:1018ac006307980074079800050f9800160f9800ae
:1018bc003e4a9000044f78004e4a9000144798001e
:1018cc005e4a9000244798006e4a90003447980076
:1018dc007e4a9000444798000e529000544798005e
:1018ec001e5290006447980006000900be5b780009
:1018fc007700b1007e00b100070078000080fa008c
:10190c00000006001400fa0000037800610798003c
:10191c0072079800030f9800140f9800f47d2000b4
:10192c00040f780084c0b300244798004e4a9000fe
:10193c00344798005e4a9000444798006e4a9000e5
:10194c00544798007e4a9000644798000e529000cd
:10195c00744798001e529000044f98002e5290002d
:10196c00144f98000e02780086027800b41a7800a2
:10197c00a4127800e482420064024200b41a780097
:10198c00a4127800e482420064024200b41a780087
:10199c00a4127800e482420064024200060078003f
:1019ac000080fa00000006001400fa00600798009e
:1019bc0071079800020f9800130f9800ee0090002a
:1019cc007e0190008e0990001e0a90000e00780097
:1019dc00ccff07001e0078009e0090002e019000a6
:1019ec00be0190004e029000de02900062fd0700e6
:1019fc000080fa00000006000000fa000000000061
:101a0c00143a80004c22de00e7426200143a800057
:101a1c004822de006742620084cf5200f8ff3a0091
:101a2c00353a800004e02f008482620044042000d8
:101a3c0005027200343a8800253a800004fe2f001b
:101a4c00048262000410a000243a8800243a80002a
:101a5c000460a1000470a100243a88003600200024
:101a6c0084072000a509200037742000844b7800df
:101a7c00854b7800864b780016002000640420000b
:101a8c007505200027742000844b7800854b780066
:101a9c00864b780000000000153a800004002700f7
:101aac008482620004002300848f5200faff3a0003
:101abc0000000000153a800004022000048262003d
:101acc00e00f5200fbff32000080fa00000006001d
:101adc000000fa00153a8000f40b20000483620029
:101aec00640420007505200027742000844b7800c6
:101afc00854b7800864b78002536800004f82f0043
:101b0c0084826200c4022000050272002436880020
:101b1c000534800004fc2f00048262000400a00045
:101b2c0004348800a536800004f82f0084826200fb
:101b3c00e402200005027200a436880015348000ef
:101b4c00f40f2c008482620004e020000502720075
:101b5c0014348800153a8000040420000403780033
:101b6c000503730064042000750520002774200011
:101b7c00844b7800854b7800864b78000080fa0007
:101b8c00000006000000fa00c1e8a800c3e8a800a5
:081b9c000080fa0000000600c1
:020000040000fa
:101ba4002012000004000000800000002412000045
:101bb400020000008000000000100000000200008d
:101bc40080000000001200002000000080000000df
:041bd400000000000d
:020000040000fa
:101bd8000000fa0089ff0700beff0700bbfe0700f0
:0c1be80065fe0700e8ff0700ffff370064
:020000040000fa
:04afe000cfff00009f
:020000040000fa
:04afe400ffff00006b
:020000040000fa
:04afe8007fff0000e7
:020000040000fa
:04afec005eff000004
:020000040000fa
:04aff000faff000064
:020000040000fa
:04aff400ffff00005b
:00000001FF
