:020000040000fa
:080000000002040000000000f2
:020000040000fa
:100008000c05000014050000380500001c05000060
:10001800240500002c0500003c0500003405000004
:100028003405000034050000340500008804000091
:10003800d20200003405000034050000ce040000a0
:10004800e604000034050000340500007c040000cc
:100058007004000034050000de02000034050000d2
:1000680034050000340500003405000034050000a4
:100078003405000034050000340500003405000094
:100088002c0300003405000034050000fe040000c5
:100098003405000034050000340500003405000074
:1000a8003405000034050000340500003e0400005b
:1000b8003803000034050000340500003405000052
:1000c8003405000034050000340500003405000044
:1000d8003405000034050000340500003405000034
:1000e8003405000034050000340500003405000024
:1000f8003405000034050000340500003405000014
:100108003405000034050000340500003405000003
:1001180034050000340500003405000034050000f3
:1001280034050000340500003405000034050000e3
:1001380034050000340500003405000034050000d3
:1001480034050000340500003405000034050000c3
:1001580034050000340500003405000034050000b3
:1001680034050000340500003405000034050000a3
:100178003405000034050000340500003405000093
:100188003405000034050000340500003405000083
:100198003405000034050000340500003405000073
:1001a8003405000034050000340500003405000063
:1001b8003405000034050000340500003405000053
:1001c8003405000034050000340500003405000043
:1001d8003405000034050000340500003405000033
:1001e8003405000034050000340500003405000023
:1001f8003405000034050000340500003405000013
:100208003405000034050000340500003405000002
:1002180034050000340500003405000034050000f2
:1002280034050000340500003405000034050000e2
:1002380034050000340500003405000034050000d2
:1002480034050000340500003405000034050000c2
:1002580034050000340500003405000034050000b2
:1002680034050000340500003405000034050000a2
:0c027800340500003405000034050000cf
:020000040000fa
:10040000ef2221000eff21000e01880000000000f5
:10041000000020000000e000020032000001200087
:10042000200288000c00070060da20000100200094
:100430000f000700000020000000e0000200320072
:100440000000020000000000d00d020000000000cb
:100450000040da000000fe00200020000000e00064
:100460000200320010002000900188000000060009
:10047000a1028800800078000000eb001a0037001d
:10048000e280400054a0b4009101ba00e280400034
:1004900054a0b4009102ba00e280400054a0b4001d
:1004a0000002eb00472bde00f507b200a601880032
:1004b000602ce10008003a000049eb000201e8006e
:1004c000020039003420ec0002f0a0008301e900b2
:1004d000f9ff3e00040037006128e100010032000e
:1004e0000082eb00040007001101ba000200e000e6
:1004f000e3ff3a000000060004d0a300e20f490029
:100500001c003900810278003549ba000201e80078
:10051000020039003420ec0002f0a0008301e90061
:100520000f0032002549ba000201e800020039003c
:100530003420ec0002f0a0008301e9000800320042
:100540000400e0000600320015c9ba000201e8000c
:10055000020039003420ec0002f0a0008301e90021
:100560008180e80054a0b4000300e000e2ff3a00fc
:10057000000006009102ba00055978008301e900e5
:10058000f7ff3200c82ade00055978008301e90030
:10059000f3ff32000400e000f1ff320011d9ba008d
:1005a000eeff3700801f78000000fa000088a900e5
:1005b0000080fa004f007800004006003600f80086
:1005c000809fbe00829fbe00849fbe00869fbe00ab
:1005d0000e00fa00156ea90011e1a8004420800069
:1005e00004427800f443b2008482fb000e82e800eb
:1005f0008500780004007800cd0207000002eb00bf
:10060000040f7800010037001e0fe80074de2f0091
:100610009e027800848f5200fbff36001e0090007f
:10062000ae0090003e019000ce0190005e0290006e
:10063000ee0290009901070001c8a9000080fa00ad
:100640004f03be004f02be004f01be004f00be0070
:100650003600f90000400600801f78000000fa0014
:100660000308a9000080fa004f007800004006004f
:100670003600f800809fbe00829fbe00849fbe00af
:10068000869fbe000000fa0044918000e00f5200f7
:1006900033003a00042080004522de0067426200f9
:1006a0000482fb00e00f52000f003200e10f520005
:1006b0005e003a00a590800054062000848f52000e
:1006c0005c003a00f404200004908800e404200058
:1006d0001490880020002000320407000000eb0086
:1006e0001a0407005a003700a4908000e20f52005d
:1006f0000c00320035072000850f52004f003a00f1
:10070000b404200004908800f404200014908800b1
:100710002000200023040700100020000b04070025
:100720000e00370004fa21000480880084002000b5
:1007300024808800b49080004822dd000410a000ce
:1007400034808800c5908000f40f2000048262008d
:10075000448088003064a800000000003c0037009e
:10076000042080004522de00674262000482fb0014
:10077000e00f52000f003200e10f520034003a0047
:10078000d590800054062000848f52002d003a003e
:10079000f404200004908800e404200014908800f1
:1007a00020002000ff0307000000eb00e703070024
:1007b00027003700d4908000e20f52000c00320076
:1007c00035072000850f520020003a00b4042000b5
:1007d00004908800f4042000149088002000200079
:1007e000f003070010002000d80307000e003700b8
:1007f00004fa21008480880084002000a4808800fe
:10080000e49080004822dd000410a000b48088003d
:10081000f5908000f40f200004826200c4808800fc
:100820003164a8000000000009003700000000004b
:10083000070037000000000005003700000000003e
:100840000300370000000000010037000000000036
:10085000449180000400a200449188000488a9000b
:100860000080fa004f03be004f02be004f01be00e1
:100870004f00be003600f90000400600801f7800df
:10088000841f78000000fa00542080006402620097
:10089000e00f5200010032000a44a90054208000f9
:1008a00062026200e00f5200010032000a24a90037
:1008b0005420800061026200e00f52000300320009
:1008c000154ea90013e1a8000a04a9000468a900b4
:1008d0000080fa004f0278004f00780000400600c8
:1008e000801f78000000fa000188a9000080fa004b
:1008f0004f00780000400600801f78000000fa00da
:100900000168a9000080fa004f007800004006004e
:10091000801f7800849fbe00861f78000000fa00c8
:1009200064222100144278000442e8000002fd0025
:1009300026f2b7000002fd00642221001442780074
:10094000e34f52000f003a00a47080004f22de00f7
:10095000044278000404a200614262000482fb00a9
:100960004f22dd00a6708000f5ff2700850263009e
:1009700005027200a47088000042eb0004007800b9
:1009800026f2b7000068a9000080fa004f03780043
:100990004f02be004f00780000400600801f780024
:1009a000841f78000000fa00156ea80011e1a9006c
:1009b0000002eb003408880000e8a9000080fa007b
:1009c0004f0278004f00780000400600801f78003a
:1009d000841f78000000fa00154ea80013e1a9005a
:1009e0000002eb00540888000108a9000080fa000a
:1009f0004f0278004f00780000400600801f78000a
:100a00000000fa001fe1a9000368a9000080fa00b5
:100a10004f00780000400600801f78000000fa00b8
:100a2000c028a900ffff3700801f78000000fa00ef
:100a3000c068a900ffff3700801f78000000fa009f
:100a4000c048a900ffff3700801f78000000fa00af
:100a5000c088a900ffff3700801f78000000fa005f
:100a6000c0a8a900ffff37000000fa00ffff370011
:100a70000000fa00ffff37000000fa00ffff370018
:020000040000fa
:100a80000000fa000004a900042080000480a100f6
:100a90000490a10004a0a000042088000000000031
:100aa00005208000040e20008482620004082000db
:100ab000848f5200faff3a000164a900640020000c
:100ac00084208800840124009420880030e4a80059
:100ad00031e4a80032e4a90033e4a90034e4a90019
:100ae00035e4a90036e4a90037e4a9000004a80011
:100af0003420800004d0a10004e0a00004f0a00095
:100b0000342088003520800004fe2f00048262001b
:100b10000410a000342088001404a80004218000e0
:100b20000400a0000410a0000420a0000430a000d5
:100b30000421880004228000ff02620004be2f000e
:100b400005027200042288003064a8004064a900f5
:100b5000c42080000400a1000410a100c42088006b
:100b60008521800004fe2f00050272008421880088
:100b70000a44a9000a04a9000a24a9000448a900fb
:100b800008c8a9000468a9000c04a8002468a800eb
:100b90000004a900042080000480a0000490a100ab
:100ba00004a0a100042088000000000005208000af
:100bb000040e20008482620004022000848f520010
:100bc000faff3a000080fa00000006000000fa0078
:100bd00001cba900045880000440a1000450a000eb
:100be00004588800045880000400a1000410a100eb
:100bf0000458880001aba8007400200074588800d5
:100c0000640420001458880024442000645888009c
:100c100004002100245888000002eb0034588800aa
:100c20000088a9002088a80001eba8000080fa0035
:100c3000000006000000fa0011cba90084588000d3
:100c40000440a1000450a00084588800845880000b
:100c50000400a1000410a1008458880011aba90071
:100c600074002000f4588800240220009458880062
:100c700004442000e458880004002100a45888009f
:100c80000002eb00b458880001c8a90021c8a800e0
:100c900011eba8000080fa00000006001400fa0022
:100ca0004007980051079800620798007307980062
:100cb000040f9800150f9800ce0090005e01900080
:100cc000ee0190007e0290008e0a90001e0b9000b4
:100cd0000e007800cc0207002e429000e04f520038
:100ce00013003a001e4290000442e80014479800a6
:100cf00064c0b300044f780084c0b3003447980048
:100d000084c1b300444798000042eb005447980068
:100d100014c0b300644798001e0078009e00900045
:100d20002e019000be019000fd020700fe0037007a
:100d3000ae42900004c2b30084cf520013003a00c8
:100d40001e4290000442e8001447980064c0b300bb
:100d5000044f78000042eb00344798000042eb005b
:100d6000444798000042eb005447980014c0b30079
:100d7000644798001e0078009e0090002e019000ad
:100d8000be019000e6020700e7003700ae42900087
:100d900004c4b30084cf520013003a001e429000f6
:100da0000442e8001447980064c0b300044f780080
:100db00044c0b300344798000042eb004447980019
:100dc0000042eb00544798000042eb006447980053
:100dd0001e0078009e0090002e019000be01900041
:100de000cf020700d0003700ae42900004c6b30027
:100df00084cf520013003a001e4290000442e800e3
:100e00001447980064c0b300044f780024c0b300b6
:100e10003447980024c0b3004447980084c2b3000c
:100e20005447980014c0b300644798001e0078002f
:100e30009e0090002e019000be019000b8020700b5
:100e4000b9003700ae42900004c6b30084cf520010
:100e500013003a001e4290000442e8001447980034
:100e600064c0b300044f780084c1b30034479800d5
:100e700034c0b3004447980054c0b30054479800ae
:100e800014c0b300644798001e0078009e009000d4
:100e90002e019000be019000a1020700a2003700c1
:100ea000ae42900004cab30084cf520013003a004f
:100eb0001e4290000442e8001447980064c0b3004a
:100ec000044f780014c2b3003447980014c1b30033
:100ed0004447980024c8b3005447980014c2b30094
:100ee000644798001e0078009e0090002e0190003c
:100ef000be0190008a0207008b003700ae429000ce
:100f000004ccb30084cf520013003a001e4290007c
:100f10000442e8001447980064c0b300044f78000e
:100f200084c1b3003447980004c1b300444798001b
:100f300024c1b3005447980014c2b300644798001a
:100f40001e0078009e0090002e019000be019000cf
:100f500073020700740037002e429000e54f5200e4
:100f60001c003a00052221009542780024c8b300f5
:100f700084cf52000300360014c4b300040078008c
:100f800020f2b7001e4290000442e8001447980087
:100f900034c0b300044f78000422210014427800ca
:100fa000344798001e0078009e0090002e019000ab
:100fb000be0190005a02070004222100144278006a
:100fc0000442e8000002fd0020f2b7000002fd002c
:100fd000550037002e429000ec4f52001d003a00a1
:100fe0001591800004e22400848f52000200360034
:100ff00004ee2200149188001e4290000442e80092
:101000001447980044c0b300044f78001491800046
:101010004822de0004427800344798001491800092
:1010200004427800444798001e0078009e0090001b
:101030002e019000be01900039020700149180003b
:101040004222de004406b0004222dd0014918800f6
:10105000350037002e429000ed4f520014003a0048
:101060001e4290000442e8001447980034c0b300c8
:10107000044f7800a42221001442780034479800dd
:101080001e0078009e0090002e019000be0190008e
:1010900023020700a4222100144278000442e80041
:1010a0000002fd002af2b7000002fd001e0037001a
:1010b000ae42900064c4b30084cf52001a003a00dc
:1010c000452221009542780064c4b30084cf5200c9
:1010d00003003600a4c0b3000400780024f2b70077
:1010e0001e4290000442e8001447980034c0b30048
:1010f000044f7800442221001442780034479800bd
:101100001e0078009e0090002e019000be0190000d
:101110000302070044222100144278000442e80040
:101120000400780024f2b7000080fa0000000600f6
:101130000e00fa00881f780000047800610798000c
:101140006e029000c422dd000400210004824200ef
:10115000140278004222de00040f78006e02900034
:101160004422dd00e4024200040021000482420027
:101170001402780004427800244798006e02900020
:101180004422dd00e6024200040021000482420005
:101190001402780004427800344798006e029000f0
:1011a0004422dd00e60242000400210004824200e5
:1011b000140278004822de00044278004447980078
:1011c0006e0290004422dd00e8024200040021008b
:1011d00004824200140278000442780054479800c8
:1011e0006e0290004422dd00e8024200040021006b
:1011f00004824200140278004822de000442780093
:10120000644798006e0290004422dd00ea0242002a
:101210000400210004824200140278000442780095
:10122000744798006e0290004422dd00ea024200fa
:101230000400210004824200140278004822de00eb
:1012400004427800044f98006e0290004422dd00b2
:10125000ec024200040021000482420014027800e3
:1012600004427800144f98006e0290004422dd0082
:10127000ec024200040021000482420014027800c3
:101280004822de0004427800244f98006e0090004f
:101290006b0007000e02780088027800b41a78000c
:1012a000a4127800e482420064024200b41a78007a
:1012b000a4127800e482420064024200b41a78006a
:1012c000a4127800e4824200640242000800780020
:1012d0004f0478000080fa00000006000e00fa00bb
:1012e000000f780011079800220798003307980034
:1012f0004407980055079800464f98004e4a9000c2
:101300000482fb009e027800c22add004423dd0037
:101310000400210004024300050a78004e4a9000b0
:101320000483fb002e4290008482fb004433dd00e6
:101330004400210004024300050a78004e4a900050
:101340000483fb004e4290000482fb00c822dd00b3
:101350003e4290000482fb00050272008402780085
:101360004433dd006400210004024300050a7800d4
:101370004e4a90000483fb006e4290000482fb0002
:10138000c822dd005e4290000482fb00050272006c
:10139000840278004433dd0084002100040243000d
:1013a000050a78004e4a90000483fb000e4a900024
:1013b0000482fb00c822dd007e4290000482fb0014
:1013c00005027200840278004433dd00a40021008d
:1013d00004024300050a78004e4a90000483fb0093
:1013e0002e4a90000482fb00c822dd001e4a9000b5
:1013f0000482fb0005027200840278004433dd00a1
:10140000c400210004024300050a78004e4a9000ff
:101410000482fb00e00f520003003200e10f520093
:1014200003003200040037003064a80002003700d7
:101430003164a800000000000080fa0000000600ef
:101440000200fa00000f78001e027800ef0f520031
:1014500009003e001e02780015002000042add006d
:101460000482ea0084027800042180000482620081
:10147000042188000c0037004420800004427800da
:10148000f443b2000482fb007002520015002000f9
:10149000042add000482ea0084027800142180001e
:1014a00004826200142188000080fa000000060017
:1014b0000000fa00c5fd0700defd070021cba900f2
:1014c000045980000440a1000450a1000459880080
:1014d000045980000400a0000410a10004598800f1
:1014e00021aba8006400200074598800c4002000cb
:1014f00014598800442220006459880004202100e7
:10150000245988000002eb00345988000308a90020
:101510002308a90021eba90031cba9008459800040
:101520000440a1000450a10084598800845980001f
:101530000400a1000410a0008459880031aba90068
:1015400024002000f4598800b40020009459880039
:1015500064222000e459880044212100a459880015
:101560000002eb00b4598800a4212100c45988006e
:101570000002eb00d45988000488a9002488a9003f
:1015800031eba800540220004411880005118000ae
:101590008480240004826200041188000511800008
:1015a00084002800050272000411880015118000d3
:1015b000f475210004826200141188001511800066
:1015c0000440200005027200141188000168a9007f
:1015d0000188a9002168a9002188a90028fd070029
:1015e00005e1a9000421a90004c1a9002408800084
:1015f0000440a0000450a000240888000002eb0072
:101600000408880044582800140888000442800018
:1016100004c0a00004d0a10004e0a100044288009e
:101620000068a9002068a80005e1a80011e1a90050
:101630001021a90010c1a900840880000440a00066
:101640000450a000840888000002eb0034088800e1
:1016500004ad2600640888001442800004c0a00085
:1016600004d0a10004e0a1001442880000e8a90011
:1016700020e8a80011e1a90013e1a9001221a900a6
:1016800012c1a900940880000440a0000450a000ea
:10169000940888000002eb005408880004ad26007e
:1016a00074088800244280000400a0000410a100f7
:1016b0000420a100244288000108a9002108a800f4
:1016c00013e1a9001fe1a9001e21a9001ec1a90064
:1016d000f40880000440a0000450a000f408880032
:1016e0000002eb00a4088800e4aa2000d4088800c7
:1016f0006442800004c0a00004d0a10004e0a10066
:10170000644288000368a9002368a8001fe1a900bb
:101710000080fa00000006000000fa00110ea90087
:10172000112ea900150ea900152ea90011eea90071
:10173000116ea900114ea90015eea900156ea800a2
:10174000154ea8000080fa00000006000200fa0012
:10175000000f78001e0278000442780067426200a1
:101760000482fb00670262004822dd000620800040
:10177000f58f2f00850263000502720004208800a7
:1017800000000000042080004522de006742620065
:101790000482fb009e0f5200faff3a000080fa001c
:1017a000000006000200fa00000f780000000000b0
:1017b000151180000420200004826200e00f520016
:1017c000fbff3a001e02e9007459880021eba800d3
:1017d00023eba8000080fa00000006000000fa00d9
:1017e0000000000015118000042020000482620027
:1017f000e00f5200fbff3a0021eba80023eba8000a
:101800000080fa00000006001400fa00800378004f
:1018100041079800520798006307980074079800e2
:10182000050f9800160f98003e4a9000044f78006c
:101830004e4a9000144798005e4a90002447980052
:101840006e4a9000344798007e4a900044479800c2
:101850000e529000544798001e5290006447980022
:1018600006000900be5b78007700b1007e00b10081
:10187000070078000080fa00000006001400fa005b
:10188000000378006107980072079800030f980022
:10189000140f9800847e2000040f780084c0b300e9
:1018a000244798004e4a9000344798005e4a9000c2
:1018b000444798006e4a9000544798007e4a900032
:1018c000644798000e529000744798001e52900092
:1018d000044f98002e529000144f98000e0278008a
:1018e00086027800b41a7800a4127800e4824200dc
:1018f00064024200b41a7800a4127800e482420024
:1019000064024200b41a7800a4127800e482420013
:1019100064024200060078000080fa000000060021
:101920001400fa006007980071079800020f9800f1
:10193000130f9800ee0090007e0190008e09900039
:101940001e0a90000e007800ccff0700c422210080
:1019500014427800e14f5200030036000042eb00d1
:10196000040078002cf2b700c42221001442780051
:10197000044378001e0078009e0090002e01900025
:10198000be0190004e029000de02900053fe070060
:10199000c4222100144278000442e80004007800c8
:1019a0002cf2b7000080fa00000006000000fa00e8
:1019b00000000000143a80004c22de00e742620082
:1019c000143a80004822de006742620084cf520051
:1019d000f8ff3a00353a800004e02f00848262006c
:1019e0004404200005027200343a8800253a800041
:1019f00004fe2f00048262000410a000243a880034
:101a0000243a80000460a1000470a100243a8800f8
:101a10003600200084072000a5092000377420002c
:101a2000844b7800854b7800864b780016002000a8
:101a3000640420007505200027742000844b780082
:101a4000854b7800864b780000000000153a800036
:101a5000040027008482620004002300848f520067
:101a6000faff3a0000000000153a8000040220004e
:101a700004826200e00f5200fbff32000080fa0097
:101a8000000006000000fa00153a8000f40b200068
:101a90000483620064042000750520002774200080
:101aa000844b7800854b7800864b78002536800083
:101ab00004f82f0084826200c40220000502720034
:101ac000243688000534800004fc2f000482620064
:101ad0000400a00004348800a536800004f82f001c
:101ae00084826200e402200005027200a4368800ad
:101af00015348000f40f2c008482620004e0200082
:101b00000502720014348800153a80000404200095
:101b100004037800050373006404200075052000a9
:101b200027742000844b7800854b7800864b780022
:101b30000080fa00000006000000fa00c1e8a800da
:0c1b4000c3e8a8000080fa0000000600c6
:020000040000fa
:101b4c0026120000040000008000000000100000bd
:101b5c0000020000800000000012000020000000c5
:101b6c00800000002012000006000000820000002f
:101b7c00410010000e0a00002a12000002000000b2
:101b8c00800000002c120000020000008000000009
:041b9c000000000045
:020000040000fa
:101ba0000000fa0081ff0700b6ff0700e2ff070010
:101bb000d9fe07003efe07000000eb00e3fe070031
:041bc000ffff3700ec
:020000040000fa
:04afe000cfff00009f
:020000040000fa
:04afe400ffff00006b
:020000040000fa
:04afe8007fff0000e7
:020000040000fa
:04afec005eff000004
:020000040000fa
:04aff000faff000064
:020000040000fa
:04aff400ffff00005b
:00000001FF
