:020000040000fa
:080000000002040000000000f2
:020000040000fa
:10000800120700001a0700003e0700002207000040
:100018002a07000032070000420700003a070000e4
:100028003a0700003a0700003a070000720600008d
:10003800d20200003a0700003a070000b8060000a4
:10004800d00600003a0700003a07000066060000e4
:100058005a0600003a070000de0200003a070000d6
:100068003a0700003a0700003a0700003a07000084
:100078003a0700003a0700003a0700003a07000074
:10008800920400003a0700003a070000e806000062
:100098003a0700003a0700003a0700003a07000054
:1000a8003a0700003a0700003a0700002806000057
:1000b8009e0400003a0700003a0700003a070000d3
:1000c8003a0700003a0700003a0700003a07000024
:1000d8003a0700003a0700003a0700003a07000014
:1000e8003a0700003a0700003a0700003a07000004
:1000f8003a0700003a0700003a0700003a070000f4
:100108003a0700003a0700003a0700003a070000e3
:100118003a0700003a0700003a0700003a070000d3
:100128003a0700003a0700003a0700003a070000c3
:100138003a0700003a0700003a0700003a070000b3
:100148003a0700003a0700003a0700003a070000a3
:100158003a0700003a0700003a0700003a07000093
:100168003a0700003a0700003a0700003a07000083
:100178003a0700003a0700003a0700003a07000073
:100188003a0700003a0700003a0700003a07000063
:100198003a0700003a0700003a0700003a07000053
:1001a8003a0700003a0700003a0700003a07000043
:1001b8003a0700003a0700003a0700003a07000033
:1001c8003a0700003a0700003a0700003a07000023
:1001d8003a0700003a0700003a0700003a07000013
:1001e8003a0700003a0700003a0700003a07000003
:1001f8003a0700003a0700003a0700003a070000f3
:100208003a0700003a0700003a0700003a070000e2
:100218003a0700003a0700003a0700003a070000d2
:100228003a0700003a0700003a0700003a070000c2
:100238003a0700003a0700003a0700003a070000b2
:100248003a0700003a0700003a0700003a070000a2
:100258003a0700003a0700003a0700003a07000092
:100268003a0700003a0700003a0700003a07000082
:0c0278003a0700003a0700003a070000b7
:020000040000fa
:10040000af2121000eff21000e0188000000000036
:10041000000020000000e000020032000001200087
:10042000200288000c000700a0ae20000100200080
:100430000f000700000020000000e0000200320072
:100440000000020000000000fe0a020000000000a0
:100450000040da000000fe00200020000000e00064
:100460000200320010002000900188000000060009
:10047000a1028800800078000000eb001a0037001d
:10048000e280400054a0b4009101ba00e280400034
:1004900054a0b4009102ba00e280400054a0b4001d
:1004a0000002eb00472bde00f507b200a601880032
:1004b000602ce10008003a000049eb000201e8006e
:1004c000020039003420ec0002f0a0008301e900b2
:1004d000f9ff3e00040037006128e100010032000e
:1004e0000082eb00040007001101ba000200e000e6
:1004f000e3ff3a000000060004d0a300e20f490029
:100500001c003900810278003549ba000201e80078
:10051000020039003420ec0002f0a0008301e90061
:100520000f0032002549ba000201e800020039003c
:100530003420ec0002f0a0008301e9000800320042
:100540000400e0000600320015c9ba000201e8000c
:10055000020039003420ec0002f0a0008301e90021
:100560008180e80054a0b4000300e000e2ff3a00fc
:10057000000006009102ba00055978008301e900e5
:10058000f7ff3200c82ade00055978008301e90030
:10059000f3ff32000400e000f1ff320011d9ba008d
:1005a000eeff3700801f78000000fa000088a900e5
:1005b0000080fa004f007800004006003600f80086
:1005c000809fbe00829fbe00849fbe00869fbe00ab
:1005d0000000fa00156ea80011e1a8004420800078
:1005e00004427800f443b2000482fb004422dd00a0
:1005f000e602420004002100048242001402780056
:100600004822de00149088004420800004427800d4
:10061000f443b2000482fb004422dd00e802420001
:10062000040021000482420094027800f40f2000ac
:1006300004826200249088004420800004427800f4
:10064000f443b2000482fb004422dd00e6024200d3
:10065000040021000482420094027800f40f20007c
:100660000482620004908800049080006123b80036
:10067000d4ff2f00f5ff2f000602420087824a00b8
:100680003600200007002000860f5200878f5a0096
:1006900083003e000406010003003700100037000d
:1006a000290037004d0037003400200074598800bd
:1006b0004420800004427800f443b2000482fb002e
:1006c0004422dd00e80242000400210004824200ce
:1006d000140278004822de0034908800750037004c
:1006e00044002000745988004420800004427800af
:1006f000f443b2000482fb004422dd00e802420021
:100700000400210004824200140278004822de0026
:10071000349088004420800004427800f443b20002
:100720000482fb004422dd00ea02420004002100b2
:100730000482420094027800f40f200004826200d8
:10074000449088005b0037005400200074598800f2
:100750004420800004427800f443b2000482fb008d
:100760004422dd00e802420004002100048242002d
:10077000140278004822de00349088004420800073
:1007800004427800f443b2000482fb004422dd00fe
:10079000ea02420004002100048242009402780030
:1007a000f40f2000048262004490880044208000fe
:1007b00004427800f443b2000482fb004422dd00ce
:1007c000ea02420004002100048242001402780080
:1007d0004822de0054908800360037006400200074
:1007e000745988004420800004427800f443b20029
:1007f0000482fb004422dd00e802420004002100e4
:1008000004824200140278004822de0034908800fe
:100810004420800004427800f443b2000482fb00cc
:100820004422dd00ea02420004002100048242006a
:1008300094027800f40f2000048262004490880043
:100840004420800004427800f443b2000482fb009c
:100850004422dd00ea02420004002100048242003a
:10086000140278004822de00549088004420800062
:1008700004427800f443b2000482fb004422dd000d
:10088000ec0242000400210004824200940278003d
:10089000f40f200004826200649088000500370095
:1008a0000002eb00745988001402200004908800b4
:1008b000000000000490800015c0b300e20f520059
:1008c00001003e008042eb000690800014c0b3009f
:1008d000e60f5300010036000042eb0004c2620044
:1008e000e04f520001003200c602070044208000a1
:1008f00004427800f443b2000482fb000400780054
:100900009602070001c8a9000080fa004f03be004c
:100910004f02be004f01be004f00be003600f9007e
:1009200000400600801f78000000fa000308a900bc
:100930000080fa004f007800004006003600f80002
:10094000809fbe00829fbe00849fbe00869fbe0027
:100950000000fa00c4908000e00f520056003a00f8
:10096000042080004522de00674262000482fb0012
:10097000e00f52001e003200e10f5200a4003a00c6
:10098000759080005406200004826a0004f0a700dd
:100990000402ea000402e9004f22de0084427800eb
:1009a000869080005406200004026b0004f0a7002b
:1009b0000402ea000402e9004f22de00044278004b
:1009c00004c27200e04f520093003200f404200091
:1009d00004908800b40620001490880020002000b5
:1009e0007a0207000000eb00460207008d00370086
:1009f000759080003407200004826a0004f0a7008c
:100a00000402ea000402e9004f22de00844278007a
:100a1000869080003407200004026b0004f0a700d9
:100a20000402ea000402e9004f22de0004427800da
:100a300004c27200e04f520009003200c4072000d7
:100a400004908800340220001490880020002000c8
:100a50005e020700100020002a0207007100370024
:100a60000402200004908800f40220001490880002
:100a7000e403200024908800300020005302070087
:100a8000c4f72100048088008400200024808800ae
:100a9000749080004822dd000410a000348088009b
:100aa00085908000f40f200004826200448088005a
:100ab0003064a8005b003700042080004522de007f
:100ac000674262000482fb00e00f52001e00320009
:100ad000e10f520053003a00959080005406200028
:100ae00004826a0004f0a7000402ea000402e9009c
:100af0004f22de0084427800a69080005406200039
:100b000004026b0004f0a7000402ea000402e900fa
:100b10004f22de000442780004c27200e04f52000f
:100b20003f003200f404200004908800b406200046
:100b30001490880020002000240207000000eb0031
:100b4000f00107003700370095908000340720003f
:100b500004826a0004f0a7000402ea000402e9002b
:100b60004f22de0084427800a690800034072000e7
:100b700004026b0004f0a7000402ea000402e9008a
:100b80004f22de000442780004c27200e04f52009f
:100b900009003200c40720000490880034022000bd
:100ba0001490880020002000080207001000200098
:100bb000d40107001b0037000402200004908800c5
:100bc000f402200014908800e403200024908800a0
:100bd00030002000fd010700c4f721008480880058
:100be00084002000a4808800949080004822dd00ca
:100bf0000410a000b4808800a5908000f40f2000ad
:100c000004826200c48088003164a80005003700b7
:100c10000000000003003700000000000100370062
:100c200000000000c49080000400a200c49088006e
:100c30000488a9000080fa004f03be004f02be00e6
:100c40004f01be004f00be003600f9000040060014
:100c5000801f7800841f78000000fa005420800074
:100c600064026200e00f5200010032000a44a90051
:100c70005420800062026200e00f52000100320046
:100c80000a24a9005420800061026200e00f520093
:100c900003003200154ea80013e1a8000a04a900c1
:100ca0000468a9000080fa004f0278004f00780025
:100cb00000400600801f78000000fa000188a900ab
:100cc0000080fa004f00780000400600801f780086
:100cd0000000fa000168a9000080fa004f007800c7
:100ce00000400600801f7800849fbe00861f7800a9
:100cf0000000fa0074212100144278000442e80048
:100d00000002fd0017f2b7000002fd00742121006f
:100d100014427800e34f52000f003a00a4708000a4
:100d20004f22de00044278000404a2006142620007
:100d30000482fb004f22dd00a6708000f5ff270033
:100d40008502630005027200a47088000042eb0077
:100d50000400780017f2b7000068a9000080fa00cc
:100d60004f0378004f02be004f007800004006009d
:100d7000801f7800841f78000000fa00156ea9001b
:100d800011e1a9000002eb003408880000e8a90086
:100d90000080fa004f0278004f0078000040060003
:100da000801f7800841f78000000fa00154ea9000b
:100db00013e1a9000002eb00540888000108a90013
:100dc0000080fa004f0278004f00780000400600d3
:100dd000801f7800841f78000000fa006421210041
:100de000144278000442e8000002fd0016f2b70049
:100df0000002fd006421210014427800e84f5200f7
:100e000003003a000042eb000400780016f2b7003d
:100e10000368a9000080fa004f0278004f007800b4
:100e200000400600801f78000000fa00c028a900da
:100e3000ffff3700801f78000000fa00c068a9009b
:100e4000ffff3700801f78000000fa00c048a900ab
:100e5000ffff3700801f78000000fa00c088a9005b
:100e6000ffff3700801f78000000fa00c0a8a9002b
:100e7000ffff37000000fa00ffff37000000fa0014
:0c0e8000ffff37000000fa00ffff370002
:020000040000fa
:100e8c000000fa0001cba900045880000440a10026
:100e9c000450a00004588800045880000400a100ed
:100eac000410a1000458880001aba80074002000b5
:100ebc0074588800640420001458880024442000ce
:100ecc006458880004002100245888000002eb00bc
:100edc00345888000088a9002088a80001eba800dd
:100eec0011cba900845880000440a1000450a0003c
:100efc0084588800845880000400a1000410a100cc
:100f0c008458880011aba90074002000f4588800a4
:100f1c00240220009458880004442000e4588800df
:100f2c0004002100a45888000002eb00b45888008b
:100f3c0001c8a90021c8a80011eba80021cba90069
:100f4c00045980000440a1000450a10004598800f9
:100f5c00045980000400a0000410a100045988006a
:100f6c0021aba8003400200074598800c400200074
:100f7c001459880044222000645988000420210060
:100f8c00245988000002eb00345988000308a9009a
:100f9c002308a80021eba90031cba90084598000bb
:100fac000440a1000450a100845988008459800099
:100fbc000400a1000410a0008459880031aba900e2
:100fcc0014002000f4598800b400200094598800c3
:100fdc0064222000e4598800e4202100a4598800f0
:100fec000002eb00b459880024212100c459880068
:100ffc000002eb00d45988000488a9002488a800ba
:10100c0031eba80074092000441188000511800000
:10101c008480240004826200041188000511800081
:10102c00840028000502720004118800151180004c
:10103c00f4752100048262001411880015118000df
:10104c000440200005027200141188000168a900f8
:10105c000188a9002168a8002188a8000004a90023
:10106c00042080000480a1000490a10004a0a00032
:10107c00042088000000000005208000040e2000e1
:10108c008482620004082000848f5200faff3a0028
:10109c000164a900640020008420880084012400dd
:1010ac009420880030e4a80031e4a80032e4a900c0
:1010bc0033e4a90034e4a90035e4a90036e4a9001e
:1010cc0037e4a9000004a8003420800004d0a1005b
:1010dc0004e0a00004f0a00034208800352080003b
:1010ec0004fe2f00048262000410a000342088004b
:1010fc001404a800042180000400a0000410a00027
:10110c000420a0000430a0000421880004228000e8
:10111c00ff02620004d02f00050272000422880036
:10112c003064a8004064a900c42080000400a10021
:10113c000410a100c42088008521800004fe2f002b
:10114c0005027200842188000a44a9000a04a9003f
:10115c000a24a9000448a90008c8a9000468a90029
:10116c000c04a8002468a8000004a9000420800036
:10117c000480a0000490a10004a0a1000420880019
:10118c000000000005208000040e20008482620014
:10119c0004022000848f5200faff3a0005e1a900f6
:1011ac000421a90004c1a900240880000440a00067
:1011bc000450a000240888000002eb0004088800fa
:1011cc0044582800140888000442800004c0a00081
:1011dc0004d0a10004e0a100044288000068a9002a
:1011ec002068a80005e1a80011e1a9001021a900c0
:1011fc0010c1a900840880000440a0000450a00085
:10120c00840888000002eb00340888008456230010
:10121c00640888001442800004c0a00004d0a1001f
:10122c0004e0a1001442880000e8a90020e8a8000e
:10123c0011e1a90013e1a9001221a90012c1a90012
:10124c00940880000440a0000450a000940888007a
:10125c000002eb00540888008456230074088800b0
:10126c00244280000400a0000410a1000420a1006e
:10127c00244288000108a9002108a80013e1a90054
:10128c001fe1a9001e21a9001ec1a900f4088000bd
:10129c000440a0000450a000f40888000002eb00f9
:1012ac00a4088800044d2800d408880064428000fb
:1012bc0004c0a00004d0a10004e0a1006442880096
:1012cc000368a9002368a8001fe1a9000080fa00a8
:1012dc00000006000000fa0011eea900116ea90032
:1012ec00114ea90015eea800156ea900154ea90007
:1012fc000080fa00000006000200fa00000f7800df
:10130c001e02780004427800674262000482fb00ef
:10131c00670262004822dd0006208000f58f2f0056
:10132c0085026300050272000420880000000000a2
:10133c00042080004522de00674262000482fb002c
:10134c009e0f5200faff3a000080fa0000000600df
:10135c000200fa00000f78001e027800ef0f520016
:10136c0009003e001e02780015002000042add0052
:10137c000482ea0084027800042180000482620066
:10138c00042188000c0037004420800004427800bf
:10139c00f443b2000482fb007002520015002000de
:1013ac00042add000482ea00840278001421800003
:1013bc0004826200142188000080fa0000000600fc
:1013cc000200fa00000f78000000000015118000e8
:1013dc000420200004826200e00f5200fbff3a0060
:1013ec001e02e9007459880021eba80023eba80029
:1013fc000080fa00000006000000fa000000000067
:10140c00151180000420200004826200e00f5200bd
:10141c00fbff3a0021eba80023eba8000080fa00a8
:10142c00000006000000fa0000000000143a8000e2
:10143c004c22de00e7426200143a80004822de00b3
:10144c006742620084cf5200f8ff3a00353a8000c0
:10145c0004e02f0084826200440420000502720024
:10146c00343a8800253a800004fe2f000482620082
:10147c000410a000243a8800243a80000460a100e3
:10148c000470a100243a8800360020008407200054
:10149c00a509200037742000844b7800854b780018
:1014ac00864b78001600200064042000750520008f
:1014bc0027742000844b7800854b7800864b78008d
:1014cc0000000000153a80000400270084826200ae
:1014dc0004002300848f5200faff3a000000000041
:1014ec00153a80000402200004826200e00f5200d2
:1014fc00fbff32000080fa00000006000000fa003a
:10150c00153a8000f40b2000048362006404200070
:10151c007505200027742000844b7800854b7800db
:10152c00864b78002536800004f82f0084826200f8
:10153c00d402200005027200243688003534800065
:10154c00f40f2c008482620004102000050272004b
:10155c0034348800a536800004f82f0084826200a1
:10156c00e402200005027200a436880015348000c5
:10157c00f40f2c008482620004e02000050272004b
:10158c0014348800153a8000040420000403780009
:10159c0005037300640420007505200027742000e7
:1015ac00844b7800854b7800864b78000080fa00dd
:1015bc00000006000000fa00c1e8a900c3e8a8007a
:0815cc000080fa000000060097
:020000040000fa
:1015d400161200000400000080000000001000004b
:1015e400000200008000000000120000160000004d
:0815f40080000000000000006f
:020000040000fa
:1015fc000000fa008bff0700c0ff0700edff07009b
:0c160c0034ff07001efe0700ffff370040
:020000040000fa
:04afe000cfff00009f
:020000040000fa
:04afe400ffff00006b
:020000040000fa
:04afe8007fff0000e7
:020000040000fa
:04afec005eff000004
:020000040000fa
:04aff000faff000064
:020000040000fa
:04aff400ffff00005b
:00000001FF
